{
  "address": "0x39044929b873963c0c98ddFF6843773189EA766e",
  "abi": [
    {
      "inputs": [
        {
          "internalType": "uint256",
          "name": "id",
          "type": "uint256"
        },
        {
          "internalType": "string",
          "name": "hashedValue",
          "type": "string"
        }
      ],
      "name": "addData",
      "outputs": [],
      "stateMutability": "nonpayable",
      "type": "function"
    },
    {
      "inputs": [
        {
          "internalType": "uint256",
          "name": "",
          "type": "uint256"
        }
      ],
      "name": "data",
      "outputs": [
        {
          "internalType": "uint256",
          "name": "id",
          "type": "uint256"
        },
        {
          "internalType": "string",
          "name": "hashedValue",
          "type": "string"
        }
      ],
      "stateMutability": "view",
      "type": "function"
    },
    {
      "inputs": [],
      "name": "getData",
      "outputs": [
        {
          "components": [
            {
              "internalType": "uint256",
              "name": "id",
              "type": "uint256"
            },
            {
              "internalType": "string",
              "name": "hashedValue",
              "type": "string"
            }
          ],
          "internalType": "struct TripleEntryAccounting.Data[]",
          "name": "",
          "type": "tuple[]"
        }
      ],
      "stateMutability": "view",
      "type": "function"
    }
  ],
  "transactionHash": "0xb218967a68de8cdfbc70daf5a8d2b27755a0ba18c347125da5256738bf48f20c",
  "args": [],
  "numDeployments": 3,
  "solcInputHash": "63229c96f24137f310a9f73c11c6c4fb",
  "bytecode": "0x608060405234801561001057600080fd5b5061086f806100206000396000f3fe608060405234801561001057600080fd5b50600436106100415760003560e01c80633bc5de30146100465780634241331514610064578063f0ba844014610080575b600080fd5b61004e6100b1565b60405161005b91906105e2565b60405180910390f35b61007e60048036038101906100799190610430565b6101ac565b005b61009a60048036038101906100959190610403565b61021f565b6040516100a8929190610604565b60405180910390f35b60606000805480602002602001604051908101604052809291908181526020016000905b828210156101a35783829060005260206000209060020201604051806040016040529081600082015481526020016001820180546101129061073c565b80601f016020809104026020016040519081016040528092919081815260200182805461013e9061073c565b801561018b5780601f106101605761010080835404028352916020019161018b565b820191906000526020600020905b81548152906001019060200180831161016e57829003601f168201915b505050505081525050815260200190600101906100d5565b50505050905090565b6000604051806040016040528084815260200183815250905060008190806001815401808255809150506001900390600052602060002090600202016000909190919091506000820151816000015560208201518160010190805190602001906102179291906102db565b505050505050565b6000818154811061022f57600080fd5b90600052602060002090600202016000915090508060000154908060010180546102589061073c565b80601f01602080910402602001604051908101604052809291908181526020018280546102849061073c565b80156102d15780601f106102a6576101008083540402835291602001916102d1565b820191906000526020600020905b8154815290600101906020018083116102b457829003601f168201915b5050505050905082565b8280546102e79061073c565b90600052602060002090601f0160209004810192826103095760008555610350565b82601f1061032257805160ff1916838001178555610350565b82800160010185558215610350579182015b8281111561034f578251825591602001919060010190610334565b5b50905061035d9190610361565b5090565b5b8082111561037a576000816000905550600101610362565b5090565b600061039161038c84610659565b610634565b9050828152602081018484840111156103ad576103ac610802565b5b6103b88482856106fa565b509392505050565b600082601f8301126103d5576103d46107fd565b5b81356103e584826020860161037e565b91505092915050565b6000813590506103fd81610822565b92915050565b6000602082840312156104195761041861080c565b5b6000610427848285016103ee565b91505092915050565b600080604083850312156104475761044661080c565b5b6000610455858286016103ee565b925050602083013567ffffffffffffffff81111561047657610475610807565b5b610482858286016103c0565b9150509250929050565b60006104988383610587565b905092915050565b60006104ab8261069a565b6104b581856106bd565b9350836020820285016104c78561068a565b8060005b8581101561050357848403895281516104e4858261048c565b94506104ef836106b0565b925060208a019950506001810190506104cb565b50829750879550505050505092915050565b6000610520826106a5565b61052a81856106ce565b935061053a818560208601610709565b61054381610811565b840191505092915050565b6000610559826106a5565b61056381856106df565b9350610573818560208601610709565b61057c81610811565b840191505092915050565b600060408301600083015161059f60008601826105c4565b50602083015184820360208601526105b78282610515565b9150508091505092915050565b6105cd816106f0565b82525050565b6105dc816106f0565b82525050565b600060208201905081810360008301526105fc81846104a0565b905092915050565b600060408201905061061960008301856105d3565b818103602083015261062b818461054e565b90509392505050565b600061063e61064f565b905061064a828261076e565b919050565b6000604051905090565b600067ffffffffffffffff821115610674576106736107ce565b5b61067d82610811565b9050602081019050919050565b6000819050602082019050919050565b600081519050919050565b600081519050919050565b6000602082019050919050565b600082825260208201905092915050565b600082825260208201905092915050565b600082825260208201905092915050565b6000819050919050565b82818337600083830152505050565b60005b8381101561072757808201518184015260208101905061070c565b83811115610736576000848401525b50505050565b6000600282049050600182168061075457607f821691505b602082108114156107685761076761079f565b5b50919050565b61077782610811565b810181811067ffffffffffffffff82111715610796576107956107ce565b5b80604052505050565b7f4e487b7100000000000000000000000000000000000000000000000000000000600052602260045260246000fd5b7f4e487b7100000000000000000000000000000000000000000000000000000000600052604160045260246000fd5b600080fd5b600080fd5b600080fd5b600080fd5b6000601f19601f8301169050919050565b61082b816106f0565b811461083657600080fd5b5056fea26469706673582212209a0cce42017675c5bbb05853f102852508484a6cd5f9cab534be121f3121a5dc64736f6c63430008070033",
  "devdoc": {
    "kind": "dev",
    "methods": {},
    "version": 1
  },
  "userdoc": {
    "kind": "user",
    "methods": {},
    "version": 1
  },
  "storageLayout": {
    "storage": [
      {
        "astId": 10,
        "contract": "contracts/TripleEntryAccounting.sol:TripleEntryAccounting",
        "label": "data",
        "offset": 0,
        "slot": "0",
        "type": "t_array(t_struct(Data)6_storage)dyn_storage"
      }
    ],
    "types": {
      "t_array(t_struct(Data)6_storage)dyn_storage": {
        "base": "t_struct(Data)6_storage",
        "encoding": "dynamic_array",
        "label": "struct TripleEntryAccounting.Data[]",
        "numberOfBytes": "32"
      },
      "t_string_storage": {
        "encoding": "bytes",
        "label": "string",
        "numberOfBytes": "32"
      },
      "t_struct(Data)6_storage": {
        "encoding": "inplace",
        "label": "struct TripleEntryAccounting.Data",
        "members": [
          {
            "astId": 3,
            "contract": "contracts/TripleEntryAccounting.sol:TripleEntryAccounting",
            "label": "id",
            "offset": 0,
            "slot": "0",
            "type": "t_uint256"
          },
          {
            "astId": 5,
            "contract": "contracts/TripleEntryAccounting.sol:TripleEntryAccounting",
            "label": "hashedValue",
            "offset": 0,
            "slot": "1",
            "type": "t_string_storage"
          }
        ],
        "numberOfBytes": "64"
      },
      "t_uint256": {
        "encoding": "inplace",
        "label": "uint256",
        "numberOfBytes": "32"
      }
    }
  }
}