{
  "address": "0x5FbDB2315678afecb367f032d93F642f64180aa3",
  "abi": [
    {
      "anonymous": false,
      "inputs": [
        {
          "indexed": false,
          "internalType": "uint256",
          "name": "id",
          "type": "uint256"
        },
        {
          "indexed": false,
          "internalType": "string",
          "name": "value",
          "type": "string"
        }
      ],
      "name": "print",
      "type": "event"
    },
    {
      "inputs": [
        {
          "internalType": "uint256",
          "name": "id",
          "type": "uint256"
        },
        {
          "internalType": "string",
          "name": "hashedValue",
          "type": "string"
        }
      ],
      "name": "addData",
      "outputs": [],
      "stateMutability": "nonpayable",
      "type": "function"
    },
    {
      "inputs": [
        {
          "internalType": "uint256",
          "name": "",
          "type": "uint256"
        }
      ],
      "name": "data",
      "outputs": [
        {
          "internalType": "uint256",
          "name": "id",
          "type": "uint256"
        },
        {
          "internalType": "string",
          "name": "hashedValue",
          "type": "string"
        }
      ],
      "stateMutability": "view",
      "type": "function"
    },
    {
      "inputs": [],
      "name": "getData",
      "outputs": [
        {
          "components": [
            {
              "internalType": "uint256",
              "name": "id",
              "type": "uint256"
            },
            {
              "internalType": "string",
              "name": "hashedValue",
              "type": "string"
            }
          ],
          "internalType": "struct TripleEntryAccounting.Data[]",
          "name": "",
          "type": "tuple[]"
        }
      ],
      "stateMutability": "view",
      "type": "function"
    },
    {
      "inputs": [],
      "name": "getData2",
      "outputs": [],
      "stateMutability": "nonpayable",
      "type": "function"
    }
  ],
  "transactionHash": "0x8613010e18338bef4f1ef1dc943e05da055bff75db4ef5fdee4c10635043440a",
  "args": [],
  "numDeployments": 1,
  "solcInputHash": "7d5159d0debd970039489092e450aaa7",
  "bytecode": "0x608060405234801561001057600080fd5b50610a97806100206000396000f3fe608060405234801561001057600080fd5b506004361061004c5760003560e01c80633bc5de3014610051578063424133151461006f578063a898fd701461008b578063f0ba844014610095575b600080fd5b6100596100c6565b604051610066919061071e565b60405180910390f35b610089600480360381019061008491906104ec565b6101c1565b005b610093610234565b005b6100af60048036038101906100aa91906104bf565b6102db565b6040516100bd929190610740565b60405180910390f35b60606000805480602002602001604051908101604052809291908181526020016000905b828210156101b8578382906000526020600020906002020160405180604001604052908160008201548152602001600182018054610127906108bd565b80601f0160208091040260200160405190810160405280929190818152602001828054610153906108bd565b80156101a05780601f10610175576101008083540402835291602001916101a0565b820191906000526020600020905b81548152906001019060200180831161018357829003601f168201915b505050505081525050815260200190600101906100ea565b50505050905090565b60006040518060400160405280848152602001838152509050600081908060018154018082558091505060019003906000526020600020906002020160009091909190915060008201518160000155602082015181600101908051906020019061022c929190610397565b505050505050565b60005b60008054905081116102d8577fd69e7d73df127a96efd0475cdd93dea25c3814e1b9df9947396c725160b840c760008281548110610278576102776109c7565b5b9060005260206000209060020201600001546000838154811061029e5761029d6109c7565b5b90600052602060002090600202016001016040516102bd929190610770565b60405180910390a180806102d090610920565b915050610237565b50565b600081815481106102eb57600080fd5b9060005260206000209060020201600091509050806000015490806001018054610314906108bd565b80601f0160208091040260200160405190810160405280929190818152602001828054610340906108bd565b801561038d5780601f106103625761010080835404028352916020019161038d565b820191906000526020600020905b81548152906001019060200180831161037057829003601f168201915b5050505050905082565b8280546103a3906108bd565b90600052602060002090601f0160209004810192826103c5576000855561040c565b82601f106103de57805160ff191683800117855561040c565b8280016001018555821561040c579182015b8281111561040b5782518255916020019190600101906103f0565b5b509050610419919061041d565b5090565b5b8082111561043657600081600090555060010161041e565b5090565b600061044d610448846107c5565b6107a0565b90508281526020810184848401111561046957610468610a2a565b5b61047484828561087b565b509392505050565b600082601f83011261049157610490610a25565b5b81356104a184826020860161043a565b91505092915050565b6000813590506104b981610a4a565b92915050565b6000602082840312156104d5576104d4610a34565b5b60006104e3848285016104aa565b91505092915050565b6000806040838503121561050357610502610a34565b5b6000610511858286016104aa565b925050602083013567ffffffffffffffff81111561053257610531610a2f565b5b61053e8582860161047c565b9150509250929050565b600061055483836106c3565b905092915050565b60006105678261081b565b610571818561083e565b935083602082028501610583856107f6565b8060005b858110156105bf57848403895281516105a08582610548565b94506105ab83610831565b925060208a01995050600181019050610587565b50829750879550505050505092915050565b60006105dc82610826565b6105e6818561084f565b93506105f681856020860161088a565b6105ff81610a39565b840191505092915050565b600061061582610826565b61061f8185610860565b935061062f81856020860161088a565b61063881610a39565b840191505092915050565b60008154610650816108bd565b61065a8186610860565b945060018216600081146106755760018114610687576106ba565b60ff19831686526020860193506106ba565b61069085610806565b60005b838110156106b257815481890152600182019150602081019050610693565b808801955050505b50505092915050565b60006040830160008301516106db6000860182610700565b50602083015184820360208601526106f382826105d1565b9150508091505092915050565b61070981610871565b82525050565b61071881610871565b82525050565b60006020820190508181036000830152610738818461055c565b905092915050565b6000604082019050610755600083018561070f565b8181036020830152610767818461060a565b90509392505050565b6000604082019050610785600083018561070f565b81810360208301526107978184610643565b90509392505050565b60006107aa6107bb565b90506107b682826108ef565b919050565b6000604051905090565b600067ffffffffffffffff8211156107e0576107df6109f6565b5b6107e982610a39565b9050602081019050919050565b6000819050602082019050919050565b60008190508160005260206000209050919050565b600081519050919050565b600081519050919050565b6000602082019050919050565b600082825260208201905092915050565b600082825260208201905092915050565b600082825260208201905092915050565b6000819050919050565b82818337600083830152505050565b60005b838110156108a857808201518184015260208101905061088d565b838111156108b7576000848401525b50505050565b600060028204905060018216806108d557607f821691505b602082108114156108e9576108e8610998565b5b50919050565b6108f882610a39565b810181811067ffffffffffffffff82111715610917576109166109f6565b5b80604052505050565b600061092b82610871565b91507fffffffffffffffffffffffffffffffffffffffffffffffffffffffffffffffff82141561095e5761095d610969565b5b600182019050919050565b7f4e487b7100000000000000000000000000000000000000000000000000000000600052601160045260246000fd5b7f4e487b7100000000000000000000000000000000000000000000000000000000600052602260045260246000fd5b7f4e487b7100000000000000000000000000000000000000000000000000000000600052603260045260246000fd5b7f4e487b7100000000000000000000000000000000000000000000000000000000600052604160045260246000fd5b600080fd5b600080fd5b600080fd5b600080fd5b6000601f19601f8301169050919050565b610a5381610871565b8114610a5e57600080fd5b5056fea2646970667358221220d13733866e82d9ad46273732f281efa80760b1d23a9f9885df11dfce0015764064736f6c63430008070033",
  "devdoc": {
    "kind": "dev",
    "methods": {},
    "version": 1
  },
  "userdoc": {
    "kind": "user",
    "methods": {},
    "version": 1
  },
  "storageLayout": {
    "storage": [
      {
        "astId": 10,
        "contract": "contracts/TripleEntryAccounting.sol:TripleEntryAccounting",
        "label": "data",
        "offset": 0,
        "slot": "0",
        "type": "t_array(t_struct(Data)6_storage)dyn_storage"
      }
    ],
    "types": {
      "t_array(t_struct(Data)6_storage)dyn_storage": {
        "base": "t_struct(Data)6_storage",
        "encoding": "dynamic_array",
        "label": "struct TripleEntryAccounting.Data[]",
        "numberOfBytes": "32"
      },
      "t_string_storage": {
        "encoding": "bytes",
        "label": "string",
        "numberOfBytes": "32"
      },
      "t_struct(Data)6_storage": {
        "encoding": "inplace",
        "label": "struct TripleEntryAccounting.Data",
        "members": [
          {
            "astId": 3,
            "contract": "contracts/TripleEntryAccounting.sol:TripleEntryAccounting",
            "label": "id",
            "offset": 0,
            "slot": "0",
            "type": "t_uint256"
          },
          {
            "astId": 5,
            "contract": "contracts/TripleEntryAccounting.sol:TripleEntryAccounting",
            "label": "hashedValue",
            "offset": 0,
            "slot": "1",
            "type": "t_string_storage"
          }
        ],
        "numberOfBytes": "64"
      },
      "t_uint256": {
        "encoding": "inplace",
        "label": "uint256",
        "numberOfBytes": "32"
      }
    }
  }
}